:020000040800F2
:1000000000000320D1720008E90A0008EB0A00088A
:10001000ED0A0008EF0A0008F10A000800000000DD
:10002000000000000000000000000000215C00084B
:10003000F30A000800000000C15C0008255D00080C
:100040002173000821730008217300082173000840
:100050002173000821730008217300082173000830
:100060002173000821730008217300082173000820
:100070002173000821730008217300082173000810
:100080002173000821730008217300082173000800
:1000900021730008217300082173000821730008F0
:1000A00021730008217300082173000821730008E0
:1000B00021730008217300082173000821730008D0
:1000C00021730008217300082173000821730008C0
:1000D00021730008217300082173000821730008B0
:1000E00021730008217300082173000821730008A0
:1000F0002173000821730008217300082173000890
:10010000217300082173000821730008217300087F
:100110002173000821730008F50A00082173000804
:10012000217300082173000821730008217300085F
:10013000217300082173000821730008217300084F
:10014000217300082173000821730008217300083F
:10015000217300082173000821730008217300082F
:10016000217300082173000821730008217300081F
:1001700021730008050B000821730008000000002F
:1001800021730008217300082173000821730008FF
:1001900021730008217300082173000821730008EF
:0C01A000150B000821730008250B000857
:1001B0000348044B834202D0034B03B118477047F6
:1001C0009400002094000020000000000548064B29
:1001D0001B1AD90F01EBA301491002D0034B03B145
:1001E0001847704794000020940000200000000091
:1001F00010B5064C237843B9FFF7DAFF044B13B16F
:100200000448AFF300800123237010BD9400002048
:10021000000000004475000808B5044B1BB10449F8
:100220000448AFF30080BDE80840CFE700000000BD
:10023000980000204475000853B94AB9002908BF46
:1002400000281CBF4FF0FF314FF0FF3000F078B9AD
:10025000ADF1080C6DE904CE00F006F8DDF804E01D
:10026000DDE9022304B070472DE9F047089D0E46F2
:1002700004460F46002B4AD18A42944665D9B2FA09
:1002800082F242B1C2F12003974020FA03F30CFA44
:1002900002FC1F4394404FEA1C4E1FFA8CF6B7FB3A
:1002A000FEF1230C0EFB117743EA074301FB06F036
:1002B00098420AD91CEB030301F1FF3780F020813B
:1002C000984240F21D81023963441B1AA4B2B3FB69
:1002D000FEF00EFB103344EA034400FB06F6A64290
:1002E0000AD91CEB040400F1FF3380F00B81A64215
:1002F00040F208816444023840EA0140A41B002116
:100300001DB1D4400023C5E90043BDE8F0878B420E
:1003100008D9002D00F0F1800021C5E9000608464B
:10032000BDE8F087B3FA83F100294AD1B34202D382
:10033000824200F20081841A66EB03020120174614
:10034000002DE2D0C5E90047DFE702B9FFDEB2FACF
:1003500082F2002A40F09480A1EB0C034FEA1C4784
:100360001FFA8CFE0121B3FBF7F607FB1630230CB6
:1003700043EA00430EFB06F0984208D91CEB030346
:1003800006F1FF3802D2984200F2D28046461B1A8C
:10039000A4B2B3FBF7F007FB103344EA03440EFBAF
:1003A00000FEA64508D91CEB040400F1FF3302D27D
:1003B000A64500F2BA801846A4EB0E0440EA0640B7
:1003C0009EE7C1F120078B4022FA07FC4CEA030CA0
:1003D00006FA01FE20FA07F426FA07F344EA0E04AF
:1003E00000FA01F84FEA1C404FEA1449B3FBF0FE53
:1003F0001FFA8CF600FB1E3349EA03430EFB06F995
:10040000994502FA01F20BD91CEB03030EF1FF3AF6
:1004100080F08980994540F28680AEF1020E6344F7
:10042000A3EB0909A4B2B9FBF0F300FB139944EA6A
:10043000094403FB06F6A64208D91CEB040403F1A9
:10044000FF306CD2A6426AD9023B644443EA0E40B4
:10045000A41BA0FB02E6B4427346B14656D353D068
:10046000002D6AD0B8EB030264EB090422FA01F311
:1004700004FA07F71F43CC40C5E90074002144E7A4
:10048000C2F1200120FA01F30CFA02FC26FA01F174
:10049000964033434FEA1C471FFA8CFEB1FBF7F03E
:1004A00007FB1016190C41EA064100FB0EF68E42BE
:1004B00004FA02F408D91CEB010100F1FF3830D234
:1004C0008E422ED902386144891B9BB2B1FBF7F6EC
:1004D00007FB161143EA014306FB0EF1994208D9C6
:1004E0001CEB030306F1FF3817D2994215D9023EDF
:1004F00063445B1A46EA004135E72946284604E78B
:100500003946E2E61846F7E6F045A9D2BEEB02030B
:1005100066EB0C060138B146A2E74646E9E703461A
:1005200094E74046D0E7D6467AE76444023843E78A
:10053000023E63442BE7084602E72946E5E600BF92
:10054000704700BF2DE9F0478EB0002409940A944B
:100550000B940C940D9401945D4B1A6B42F00402C1
:100560001A631A6B02F004020192019A02941A6B48
:1005700042F020021A631A6B02F020020292029AE1
:1005800003941A6B42F080021A631A6B02F0800225
:100590000392039A04941A6B42F001021A631A6BD5
:1005A00002F001020492049A05941A6B42F00202CE
:1005B0001A631A6B02F002020592059A06941A6BEE
:1005C00042F040021A631A6B02F040020692069A49
:1005D00007941A6B42F010021A631A6B02F01002B1
:1005E0000792079A08941A6B42F008021A631B6B71
:1005F00003F008030893089B364F2246162138461D
:1006000002F08CFEDFF8D88022468021404602F0BE
:1006100085FE314E22464FF44051304602F07EFEB8
:10062000DFF8C09022464FF4C041484602F076FE03
:100630001623099301250A950B940C9409A93846B1
:1006400002F068FD48F2070309934FF4901ACDF8C1
:1006500028A00B9409A9404602F05CFD8023099371
:100660000A950B940C9409A9404602F053FD2023EF
:100670000993CDF828A00B9409A9384602F04AFD49
:10068000042309930A940B9409A9144802F042FD2B
:100690004FF4006309930A940B9409A9304602F0C1
:1006A00039FD4FF4405309930A950B940C9409A912
:1006B000304602F02FFD4FF4C04309930A950B9486
:1006C0000C9409A9484602F025FD0EB0BDE8F0875C
:1006D0000038024000080240000C024000040240C2
:1006E000000002400018024008B500F043FE01205F
:1006F00005F080F8FBE7000008B50268034B9A425A
:1007000000D008BD02F082FEFBE700BF00100040F1
:1007100072B6FEE708B50448044B036002F09CFE85
:1007200000B908BDFFF7F4FFB4000020003002401C
:1007300008B50C480C4B0360002343608360C36022
:100740008362C3620363436302F095FE28B901210B
:10075000044802F05DFF10B908BDFFF7D9FFFFF7AD
:10076000D7FF00BFBC00002000B0024000B589B038
:100770000023019302930393049305930693079335
:100780001448154A02600122426083600421C1605E
:1007900010220261402242614FF4C0728261C36143
:1007A0004FF40062026243624FF4005383620223FB
:1007B0000193072202920391049203220592069369
:1007C0000793694403F017F810B909B05DF804FB0A
:1007D000FFF79EFFF8010020400100A008B5114876
:1007E000114B0360114B436000238360C3604FF4DF
:1007F0008042026143618361C361036203F01CF8BC
:1008000050B90021074803F0F5F838B90021054830
:1008100003F012F920B908BDFFF77AFFFFF778FF60
:10082000FFF776FFFC000020005C0040A08601007E
:1008300000B58FB03422002101A806F0B5FD27488D
:10084000274B0360002343608360C3600361092278
:100850004261012282611D22C2610322026240F2D2
:100860000D12426240F24312826240F21712C262DB
:1008700040F24712026380F8343080F8353080F857
:10088000363003F0D1F920BB00220192F021029111
:1008900003924FF4A073049302200590FF2006906A
:1008A00007924FF4C0600890072009904FF0504025
:1008B0000A900B910C938DF834208DF835208DF82B
:1008C000362001A9054803F099FA20B90FB05DF868
:1008D00004FBFFF71DFFFFF71BFF00BF50010020C7
:1008E0000068014008B50D480D4B03604FF482735A
:1008F000436000238360C360036143614FF400726F
:1009000082611822C2610362436283620A23C36266
:1009100003F0A8FA00B908BDFFF7FAFE2C02002088
:100920000050014000B587B0002302930393049365
:100930000593009301931348134A02604360836058
:100940004FF6FF72C26003614361836103F082FC72
:1009500090B94FF48053029302A90A4803F0B3FC04
:1009600060B90023009301936946064803F02AFD0D
:1009700030B907B05DF804FBFFF7CAFEFFF7C8FE09
:10098000FFF7C6FE840200200000014008B50A48B7
:100990000A4B03604FF4E133436000238360C3607C
:1009A00003610C2242618361C36103F0DBFD00B986
:1009B00008BDFFF7ADFE00BFCC02002000100140D3
:1009C00000B595B03022002108A806F0EDFC002308
:1009D000039304930593069307930193204A116CA4
:1009E00041F080511164126C02F080520192019A20
:1009F00002931C4A136823F4404343F4804313607A
:100A0000136803F440430293029B012308934FF4BD
:100A10008033099302230E934FF480020F92042235
:100A200010924822119212930323139308A801F005
:100A3000D1FE80B90F230393022104910023059373
:100A40004FF480520692079303A802F02DF920B9C3
:100A500015B05DF804FBFFF75BFEFFF759FE00BF22
:100A6000003802400070004000B589B002F0B4FCCC
:100A7000FFF7A6FFFFF766FDFFF74CFEFFF758FEF6
:100A8000FFF774FEFFF7AAFEFFF7D2FEFFF72AFF7B
:100A9000FFF748FFFFF77AFF0DF1040C084C0FCC6D
:100AA000ACE80F0094E807008CE80700002101A8DB
:100AB00004F06DFE034B186004F064FEFEE700BF17
:100AC0005C750008B0000020704770477047000058
:100AD000034B0360034B0B6080231360704700BF20
:100AE0001005002010030020FEE7FEE7FEE7FEE70A
:100AF000FEE7704708B5024803F08AFA08BD00BF58
:100B00006C05002008B5024801F06EF908BD00BF71
:100B1000B405002008B5024803F003F908BD00BF82
:100B20005001002008B5024802F0D4FC08BD00BF07
:100B3000BC0000202DE9F04186B000230193029310
:100B40000393049305932D4B1B6813B106B0BDE8C6
:100B5000F0814FF00108294BC3F800800026009671
:100B6000274B9A6B42EA08029A639B6B03EA0803DD
:100B70000093009B4FF63F03019302270297032542
:100B800004950C24059401A91E4802F0C3FACDF87F
:100B90000480029703960495059401A91A4802F06F
:100BA000B9FA48F23313019302970396049505941A
:100BB00001A9164802F0AEFA4FF68373019302972B
:100BC00003960495059401A9114802F0A3FA4CF28A
:100BD00003730193029703960495059401A90D48A8
:100BE00002F098FA60230193029703960495059406
:100BF00001A9094802F08EFAA8E700BF68050020A5
:100C00000038024000140240000802400018024070
:100C100000100240000C02400004024000B583B006
:100C2000002200920D4B596C41F480415964596C7B
:100C300001F48041009100990192196C41F08051BA
:100C400019641B6C03F080530193019B0F216FF01B
:100C5000010002F07BFB03B05DF804FB00380240AA
:100C60000268094B9A4200D0704782B0002301937A
:100C7000064B1A6B42F480521A631B6B03F48053C9
:100C80000193019B02B070470030024000380240DF
:100C900002680E4B9A4200D0704700B583B0002224
:100CA0000192A3F5F043196B41F4000119631B6B2A
:100CB00003F400030193019B05215A2002F046FB37
:100CC0005A2002F07BFB03B05DF804FB00B0024049
:100CD0002DE9F04188B00023039304930593069314
:100CE00007930268204B9A4202D008B0BDE8F08119
:100CF000002500951D4C236B43F004032363236BF5
:100D000003F004030093009B0195236B43F0010360
:100D10002363236B03F001030193019B4FF40073E2
:100D200003934FF01208CDF8108001270597042691
:100D3000079603A90E4802F0EDF94FF48073039370
:100D4000CDF8108005970695079603A9094802F08B
:100D5000E1F90295236C43F400032364236C03F44C
:100D600000030293029BC0E7005C00400038024091
:100D700000080240000002402DE9F04198B004460E
:100D8000002113911491159116911791302207A803
:100D900006F00AFB2268624B9A4202D018B0BDE806
:100DA000F0810823079332230B9302230D9307A8A6
:100DB00002F06EF8002840F0B08000240094594BF7
:100DC0005A6C42F080625A645A6C02F0806200925F
:100DD000009A01941A6B42F020021A631A6B02F017
:100DE00020020192019A02941A6B42F001021A63E6
:100DF0001A6B02F001020292029A03941A6B42F0FB
:100E000002021A631A6B02F002020392039A04941C
:100E10001A6B42F040021A631A6B02F0400204920D
:100E2000049A05941A6B42F004021A631A6B02F0DA
:100E300004020592059A06941A6B42F008021A639E
:100E40001B6B03F008030693069B4FF48063139318
:100E500002251495159416940E26179613A9324858
:100E600002F058F941F6580313931495159416940B
:100E7000179613A92D4802F04DF9032313931495E7
:100E8000159416944FF00908CDF85C80284F13A9EB
:100E9000384602F03FF94FF470631393149515949C
:100EA0001694179613A9384602F034F94FF40C63E0
:100EB0001393149515941694179607F5A05713A934
:100EC000384602F027F94FF498631393149515945C
:100ED0001694179613A9174802F01CF94823139388
:100EE000149515941694179613A9134802F012F945
:100EF0004FF4A0531393149515941694CDF85C8079
:100F000013A9384602F006F922460521582002F0BE
:100F10001DFA582002F052FA40E7FFF7F9FB4CE7C0
:100F20000068014000380240001402400000024006
:100F30000004024000080240000C024000B589B0E5
:100F40000023039304930593069307930268144BBD
:100F50009A4202D009B05DF804FB0021019103F52B
:100F600068435A6C42F480125A645A6C02F480123C
:100F70000192019A02911A6B42F020021A631B6BD4
:100F800003F020030293029B4FF460730393022348
:100F900004930523079303A9024802F0BBF8D9E79D
:100FA00000500140001402400268094B9A4200D0F0
:100FB000704782B000230193064B5A6C42F0010245
:100FC0005A645B6C03F001030193019B02B070470C
:100FD000000001400038024000B589B000230393AF
:100FE0000493059306930793026803F1804303F586
:100FF00088339A4202D009B05DF804FB00210191C8
:1010000003F594335A6C42F010025A645A6C02F0A1
:1010100010020192019A02911A6B42F001021A63C6
:101020001B6B03F001030293029B4FF4C063039315
:1010300002230493032306930723079303A902487B
:1010400002F068F8D7E700BF0000024008B5FFF7DC
:1010500071FD08BD10B588B001460022362002F0AF
:1010600075F9362002F0AAF900240194144B1A6C89
:1010700042F010021A641B6C03F010030193019BF1
:1010800002A903A801F0E6FE01F0C4FE43000D4AE8
:10109000A2FB03239B0C013B0B480C4A026040F26D
:1010A000E732C26043600461846003F0D3F810B19A
:1010B000012008B010BD044802F062FFF9E700BF4C
:1010C0000038024083DE1B436C0500200010004006
:1010D00070B588B000230393049305930693079398
:1010E00002681D4B9A4201D008B070BD00250195E1
:1010F0001A4C236B43F002032363236B03F00203B8
:101100000193019B4FF450430393022304930C2358
:101110000793134E0DEB0301304601F0FBFF4FF434
:10112000005303930495059503A9304601F0F2FF9F
:101130000295236B43F000532363236B03F00053AA
:101140000293029B2A4605214D2002F0FFF84D2014
:1011500002F034F9C8E700BF000004400038024044
:101160000004024008B5D0F8000305F08CFA08BD71
:1011700008B5D0F8000305F09FFA08BD08B5D0F80F
:10118000000305F0ABFA08BD08B5D0F8000305F080
:10119000C3FA08BD08B5D0F8000305F07DFA08BD14
:1011A00008B5D0F8000305F083FA08BD90F8CC33F9
:1011B0000BB10020704710B504461148C0F8004339
:1011C000C4F8D0030F4B03600C2383600123C3607A
:1011D0000023036102228261C3610362C36243632D
:1011E00000F090F940B9064800F0DFFE01462046C5
:1011F00005F046FA002010BDFFF78AFAF3E700BFBA
:10120000B40500200000044008B5D0F8D00300F079
:10121000D1FE012804D0022804D000B1012008BD6D
:101220000120FCE70220FAE708B5D0F8D00300F06F
:10123000B7FE08BD08B5D0F8D00300F0ABFE08BD7E
:1012400008B590F8CC3323B1C82002F0F1F80020A3
:1012500008BD084600F06CF8F6E7D0F8D0332C2033
:1012600000FB013090F83B0030B12C2000FB013135
:1012700081F85420002070472C2000FB013181F8B8
:101280005520F7E708B502F0D3F808BD022805D8C5
:10129000DFE800F0050402000120704702207047DB
:1012A00008B5D0F8D00300F049FEFFF7EFFF08BD06
:1012B00008B5D0F8D00300F056FEFFF7E7FF08BDF1
:1012C00008B5D0F8D00300F060FEFFF7DFFF08BDDF
:1012D00010B584B0D0F8D003BDF8204002949DF83A
:1012E0001C4001949DF81840009400F0B2F8FFF7FC
:1012F000CDFF04B010BD08B5D0F8D00300F0F0F871
:10130000FFF7C4FF08BD10B584B0D0F8D0039DF836
:1013100024400394BDF820400294079C01949DF85A
:101320001840009400F040F9FFF7B0FF04B010BD82
:1013300008B528B901221021024801F0EFFF08BDCD
:101340000022F8E70008024004290CD0052902D049
:10135000022904D07047064B03221A707047044BD1
:1013600002221A707047024B01221A70F2E700BF86
:10137000B808002008B500220B490C4804F054FFBF
:1013800048B90B49094804F093FF38B9074804F0FD
:10139000D4FF30B908BDFFF7BBF9F2E7FFF7B8F9A2
:1013A000F4E7FFF7B5F9F5E749130008BC0800209A
:1013B00010000020F8B50668346A04F00F07C4F383
:1013C0004343C4F30A14022B00D0F8BD0546002C99
:1013D000FBD02C2303FB0703596C0029F5D02C23E9
:1013E00003FB07031A6D2244DB6C9A4206D92C23B7
:1013F00003FB0705042385F86030E6E72246304604
:1014000000F09BFE2C2303FB07535A6C22445A64C2
:101410001A6D22441A6506EB4716D6F81025C2F35A
:10142000C942B3F84030A342CFD1002ACDD0D6F87C
:10143000003523F0804343F00043C6F800352C23E9
:1014400003FB075393F8542082F0010283F85420E1
:10145000BBE7F0B585B004469DF828509DF82C6098
:10146000BDF8307090F8F802012837D0012084F8D8
:10147000F8022C2000FB01404FF0000C80F83DC02A
:1014800080F83830A0F8407080F8391080F83F605C
:1014900002F07F0C80F83AC012F0800F16D12C2099
:1014A00000FB01404FF0000C80F83BC02C2000FBFB
:1014B000014080F83C50029701960095206800F0AA
:1014C00080FF002384F8F83205B0F0BD2C2000FB2B
:1014D00001404FF0010C80F83BC0E7E70220F3E742
:1014E00090F8F832012B0BD010B50446012380F898
:1014F000F832006800F0F8FF002084F8F80210BD10
:101500000220704700284DD070B58AB004460568A7
:1015100090F8F932002B40D0032384F8F932EB6BBA
:1015200013F4807F01D100232361206800F0B9FD0E
:10153000A4465CF8106BEE46BCE80F00AEE80F0066
:10154000BCE80F00AEE80F009CE803008EE8030043
:10155000251D95E80E00304600F058FD0121206859
:1015600000F016FEA4465CF8106BEE46BCE80F00D7
:10157000AEE80F00BCE80F00AEE80F009CE80300E7
:101580008EE8030095E80E00304600F033FE01239C
:1015900084F8F93200200AB070BD80F8F832FFF705
:1015A00097FDB9E70120704770B59DF81050BDF860
:1015B00018604FF02C0C0CFB010C8CF83B208CF8C5
:1015C0003F307DB964464FF0030C84F842C09DF86B
:1015D0001CC084F83DC0032B00F28180DFE803F0DB
:1015E0000A7929512C2404FB01044FF0020C84F8E1
:1015F00042C0F0E7012D72D1002A70D12EB92C2300
:1016000003FB0103012283F855202C2303FB010374
:1016100093F8553033B92C2303FB0103002283F8E0
:1016200042205CE02C2303FB0103022283F84220CA
:1016300055E092B92C2303FB010393F855302BB9E5
:101640002C2303FB010383F8422048E02C2303FBF7
:101650000103022283F8422041E02C2303FB010313
:1016600093F8543033B92C2303FB0103002283F891
:10167000422034E02C2303FB0103022283F84220A2
:101680002DE092B92C2303FB010393F855302BB9BD
:101690002C2303FB010383F8422020E02C2303FBCF
:1016A0000103022283F8422019E02C2303FB0103EB
:1016B00093F8543033B92C2303FB0103002283F841
:1016C00042200CE02C2303FB0103022283F842207A
:1016D00005E02C2303FB0103002283F842202C2386
:1016E00001FB03F3C218059C5464D664002482F8FD
:1016F0006040146582F8391082F8614003F13801C6
:10170000027C0144006800F073FF70BD30B583B007
:1017100004460568D5F840340193D5F84034009369
:10172000009B23F02E030093019B13F0020F07D0C0
:10173000019B13F0010F25D1009B43F0020300939E
:10174000019B13F0080F10D0009B43F00803009397
:10175000019B13F0040F2DD0A369022B15D0E36871
:10176000012B22D02046FFF715FD019B13F0200F1F
:1017700003D0009B43F020030093009BC5F8403446
:1017800003B030BDFFF7F4FCD6E7019B03F4C023A0
:10179000B3F5802F04D00121206800F0A1FDE1E71E
:1017A0000221206800F09CFDDCE74EF66022C5F8BF
:1017B0000424D7E72046FFF7F3FCD6E7F8B5054643
:1017C0000E46076807EB411707F5A064A36813F0FE
:1017D000040F40D00423A360E36843F00203E360F6
:1017E000A36813F4007F40F09380A36813F0010F07
:1017F00000F0D7802B6943B12C2303FB06539A6C6E
:101800002169C1F31201521A1A652C2303FB0653F6
:10181000012283F861200021D965A26093F83F304E
:10182000002B00F08180022B7ED0032B00F09380F0
:10183000012B40F083802C2303FB0653012283F805
:10184000602093F85410514083F8541031462846D4
:10185000FFF79AFC72E0A36813F4807F06D1A368B7
:1018600013F0200F13D02023A360B9E74FF4807347
:10187000A3602C2303FB0103072283F86120E368A4
:1018800043F00203E360006800F02EFEA8E7A368BF
:1018900013F0080F17D1A36813F4806F25D1A36844
:1018A00013F0800F9CD0E36843F00203E3602C2325
:1018B00003FB0103062283F86120006800F014FE98
:1018C0008023A3608CE7E36843F00203E3602C23EA
:1018D00003FB0103052283F861201023A360082382
:1018E000A360006800F000FE7AE7E36843F00203BB
:1018F000E3602C2303FB0103082283F861201023FB
:10190000A3604FF48063A360006800F0EDFD67E71B
:10191000E36843F00203E3603146286800F0E4FD29
:101920004FF40073A360F8BDE36843F00203E36083
:101930003146286800F0D8FD1023A3602B69012BE5
:101940001AD02C2303FB065393F8542082F0010293
:1019500083F85420E7E7D7F8003543F00053C7F881
:1019600000352C2303FB0653012283F86020314607
:101970002846FFF709FCE1E72C2303FB06539A6C8A
:10198000B3F84030B2FBF3F313F0010FCBD02C23AC
:1019900003FB065393F8542082F0010283F854208D
:1019A000C1E7A36813F0020F62D0E36823F00203DB
:1019B000E3602C2303FB065393F86130012B07D01F
:1019C000033B052B0AD8DFE803F03A09151C491C34
:1019D0002C2303FB0653012283F860200223A3601B
:1019E0002C2303FB065393F8602031462846FFF76B
:1019F000CBFB98E72C2303FB0653052283F86020DA
:101A0000ECE72C2202FB0652D36D0133D365022B87
:101A100006D913460022DA65042283F86020DDE748
:101A20002C2303FB0653022283F86020D7F80035ED
:101A300023F0804343F00043C7F80035CEE72C2362
:101A400003FB0653022283F86020D7F8003523F009
:101A5000804343F00043C7F80035BFE72C2303FB66
:101A60000653DA6D0132DA65042283F86020B5E7A7
:101A7000A36813F0100F3FF456AF2C2303FB06535B
:101A800093F83F30032B0CD00BB1022B06D12C2343
:101A900003FB06530022DA652B6983B11023A36090
:101AA00041E72C2303FB06530022DA65E36843F089
:101AB0000203E3603146286800F016FDEEE72C23B0
:101AC00003FB0653032283F86120E36843F002031B
:101AD000E3603146286800F007FDDFE770B5036872
:101AE00003EB411303F5A064A26812F0040F06D0C3
:101AF0000423A360E36843F00203E36070BD05467E
:101B00000E46A26812F0200F18D02023A3602C23C9
:101B100003FB010393F83D30012BEFD12C2303FB92
:101B20000103002283F83D20022283F86020E3684D
:101B30001343E360006800F0D7FCDFE7A26812F40B
:101B4000007F24D1A26812F0010F2BD02C2303FBBD
:101B500001030022DA65A36813F0400F07D02C239D
:101B600003FB0103012283F83D204023A360E368C7
:101B700043F00203E3603146286800F0B5FC01221F
:101B8000A2602C2303FB065383F86120B6E7E368C9
:101B900043F00203E360006800F0A6FC4FF400731A
:101BA000A360ABE7A26812F0400F29D1A26812F03F
:101BB000080F3AD1A26812F0100F46D02C2303FB75
:101BC00001030022DA65032283F8612093F83D3097
:101BD0005BB92C2303FB010393F83C302BB92C2376
:101BE00003FB0103012283F83D20E36843F0020375
:101BF000E3603146286800F077FC1023A3607DE79E
:101C00002C2303FB0103042283F86120012283F8C3
:101C10003D200022DA65E36843F00203E3600068D8
:101C200000F062FC4023A36068E70823A360E36838
:101C300043F00203E360006800F056FC2C2303FB32
:101C40000653052283F8612058E7A26812F0800F3E
:101C500029D0036983B12C2202FB0102D36D013329
:101C6000D365022B16D82C2303FB0103022283F831
:101C700060208023A36041E72C2303FB010306229D
:101C800083F86120E36843F00203E360006800F03A
:101C90002BFCEEE713460022DA65042283F860206D
:101CA000FFF772FAE5E7A26812F4806F17D1A26815
:101CB00012F0020F3FF422AFE26822F00202E2606B
:101CC0002C2202FB010292F86120012A1AD0033A69
:101CD000052A22D8DFE802F0565D646B216BE368C9
:101CE00043F00203E360006800F0FEFB1023A360F2
:101CF0004FF48063A3602C2303FB0653082283F870
:101D00006120FBE62C2303FB010383F8602093F89A
:101D10003F30023BDBB293420BD90223A3602C235A
:101D200003FB065393F8602031462846FFF72CFA50
:101D3000E4E6016941B92C2303FB060393F855201F
:101D400082F0010283F855200129E6D12C2303FB00
:101D50000653DB6C002BE0D02C2202FB0652B2F8BB
:101D600040201344013BB3FBF2F313F0010FD4D036
:101D70002C2303FB065393F8552082F0010283F8CD
:101D80005520CAE72C2303FB0603022283F86020B8
:101D9000C3E72C2303FB0603022283F86020BCE781
:101DA0002C2303FB0603052283F86020B5E72C21D2
:101DB00001FB0601CA6D0132CA65022A05D900225B
:101DC000CA65042281F86020A7E72C2202FB0602E4
:101DD000022182F86010D3F8002522F0804242F000
:101DE0000042C3F8002598E7F8B504460568284680
:101DF00000F0CAF9012800D0F8BD206800F0C0F951
:101E00000028F9D0206800F0BBF910F4001F03D0BF
:101E100023684FF400125A61206800F0B1F910F401
:101E2000801F03D023684FF480125A61206800F0AD
:101E3000A7F910F0806F03D023684FF080625A61D9
:101E4000206800F09DF910F0020F02D023680222F2
:101E50005A61206800F094F910F0005F08D0236800
:101E60004FF000525A61D5F8403413F0010F1DD0E5
:101E7000206800F085F910F0807F26D1206800F0FE
:101E80007FF910F0080F24D1206800F079F910F0E4
:101E9000100F25D1206800F073F910F0007FABD04F
:101EA000206800F01CFB074600262CE01021284685
:101EB00000F0FEF8284600F013F90121206800F038
:101EC0000FFA2046FFF75AF9D2E72046FFF71EFC2B
:101ED000D4E72046FFF746F9236808225A61D3E782
:101EE0002268936923F0100393612046FFF762FA9A
:101EF0002268936943F010039361CBE7F1B2204667
:101F0000FFF7ECFD0136A368B34212D906F00F03C8
:101F100027FA03F313F0010FF4D005EB4613D3F8BF
:101F2000003513F4004FE9D0F1B22046FFF746FC2C
:101F3000E8E723684FF000725A615DE790F8F832E5
:101F4000012B0ED010B50446012180F8F81200686C
:101F500000F004FA206800F09EF8002084F8F802EF
:101F600010BD0220704790F8F832012B0BD010B54D
:101F70000446012380F8F832006800F0EDFB0020F1
:101F800084F8F80210BD0220704708B5006800F020
:101F9000C6F908BD2C2303FB010090F860007047D0
:101FA0002C2303FB0100006D704708B5006800F0AA
:101FB00003FA08BD08B5006800F0F3F908BD000099
:101FC00082B000230193019B013301930E4A934297
:101FD00014D80369002BF6DA00230193036943F058
:101FE00001030361019B01330193074A934208D81F
:101FF000036913F0010FF5D1002000E0032002B0C7
:1020000070470320FBE700BF400D030084B010B50C
:10201000044603A880E80E00089B012B1FD1A36B88
:1020200023F48033A363E36823F4840323F04003A1
:10203000E360E36823F44013E3600F9B012B09D0B6
:102040002046FFF7BDFF069B012B1BD0BDE81040CB
:1020500004B07047E36843F48013E360F0E7E3689B
:1020600043F04003E3602046FFF7AAFF0C9B23B92F
:10207000A36B43F48033A363E5E7A36B23F48033BE
:10208000A363E0E7A36843F00603A360A36843F0FB
:102090002003A360DAE7836843F001038360002034
:1020A0007047836823F001038360002070470000BD
:1020B00082B000230193890141F020010161019B5D
:1020C00001330193054A934205D8036913F0200FA9
:1020D000F5D1002000E0032002B07047400D03005E
:1020E00082B00023019310230361019B013301930C
:1020F000054A934205D8036913F0100FF5D100206B
:1021000000E0032002B07047400D030010B59DF8B9
:10211000084084B903334FEA930E4FF0000C08E0F7
:1021200000EB023303F5805351F8044B1C600CF1B3
:10213000010CF445F4D3002010BD10B584460846C8
:102140004FEA920E02F00302002305E00CF58051E5
:10215000096840F8041B01337345F7D37AB10CF5D5
:10216000805CDCF800400021CBB2DB0024FA03F3F2
:1021700000F8013B0131013A92B2002AF4D110BDBE
:102180004269806910407047406900F00100704763
:1021900038B50546C36823F0C043C360012913D096
:1021A00019BBC36843F08043C3600024012001F0E1
:1021B0003FF901342846FFF7E7FF08B1312CF5D984
:1021C000322C14D0002038BDC36843F00053C360E4
:1021D0000024012001F02CF901342846FFF7D4FF38
:1021E0000128EDD0312CF4D9EAE70120EBE70120FA
:1021F000E9E7000084B010B5044603A880E80E00AB
:102200000023C4F8003EA36B43F40013A363A36B45
:1022100023F40023A363A36B23F48023A363E36B62
:1022200013F4807F10D0059B012B06D0D4F8003426
:1022300023F00403C4F800340CE0D4F8003443F075
:102240000403C4F8003405E0D4F8003423F0040398
:10225000C4F8003410212046FFF72AFF2046FFF77C
:102260003FFF002209E004EB42134FF0FF31C3F8B7
:1022700008150021C3F80C150132049B9342F2D8D3
:102280000023A3614FF0FF336361E36B13F4807F9E
:1022900017D04FF40073636203F18073A3620D4B98
:1022A000C4F80031069B1BB9A36943F01003A36176
:1022B000A269094B1343A3610020BDE8104004B09C
:1022C00070478023636203F5C003A362034BC4F825
:1022D0000031E7E70003E000080020A3E000400031
:1022E00000F5806CD0F8003423F00303C0F800340C
:1022F000D0F8003401F003021343C0F80034012980
:1023000003D0022906D0002070474BF68033CCF86A
:102310000430F8E741F27073CCF80430F3E730B5DD
:1023200083B0044600250195D0F840340193019B09
:1023300023F02E030193019B43F48073C0F84034D3
:10234000642001F075F8019B23F48073C4F84034D5
:102350000A2001F06DF8284603B030BD82B000239A
:102360000193D0F840340193019B23F02E03019395
:10237000019B13F4805F01D101290CD0019B13F460
:10238000805F05D021B9019B23F48053C0F840340D
:10239000002002B07047019B43F48053C0F84034E2
:1023A000ECE782B000230193D0F840340193019808
:1023B000C0F3414002B0704700F58060806880B291
:1023C00070472DE9F84391461C469DF8245000EBD8
:1023D000411606F5A0634FF0FF329A60032D69D8CD
:1023E000DFE805F0025A021840F29D42DA6019F067
:1023F000800F09D1C26B12F4807F5DD0DA6842F0A1
:102400006002DA6000270CE0DA6842F48072DA6079
:10241000002706E040F29D62DA6019F0800F35D1A6
:102420000027D0F8183401F00F0101228A4013432D
:10243000C0F81834836943F00073836119F0800F8A
:102440003CD14FF00008FFF7ACFF9DF82030022B85
:1024500037D00022A30503F0FE534FEAC92909F43F
:10246000F04943EA0903A90401F440210B43BDF8F4
:102470002810C1F30A010B4343EA08031343C6F8CB
:102480000035032D24D03846BDE8F883DA6842F4DD
:102490008072DA600027C4E740F22522DA6019F082
:1024A000800F01D10027BCE7DA6842F4C072DA601D
:1024B0000027B6E70127B4E70027B2E74FF400484A
:1024C000C1E7022802D04FF40032C3E70022C1E77F
:1024D000D6F8003543F00053C6F80035D3E700F5D1
:1024E0008060406980B2704730B400EB411101F563
:1024F000A062D1F80035C3F38143D1F80045856867
:1025000015F0200F02D0E40F002C55D033B3022B6E
:1025100024D0D1F8003543F08043C1F80035D0F81D
:10252000103413F47F034AD1D1F8000520F00040A5
:10253000C1F80005D1F8000540F00040C1F80005E1
:10254000D1F8000520F40040C1F800050133B3F5CF
:102550007A7F31D811680029F8DB2DE0D1F80035F9
:1025600043F08043C1F80035836813F0200F23D176
:10257000C36A13F47F0319D1D1F8000520F000409D
:10258000C1F80005D1F8000540F00040C1F8000591
:10259000D1F8000520F40040C1F800050133B3F57F
:1025A0007A7F09D811680029F8DB05E0D1F80035F9
:1025B00043F00043C1F80035002030BC7047D1F82B
:1025C000003543F00043C1F80035F5E700EB41105A
:1025D000064AC0F81025D0F8003523F0804343F0B8
:1025E0000043C0F800350020704700BF000008809D
:1025F00030B585B04B78C46B14F4807F07D00C796C
:102600002CB9012A16D012B94C79012C1FD04C6973
:102610000CB30D8904EB050C0CF1FF3CBCFBF5FC85
:102620001FFA8CFCBCF5807F17D92D020D614FF489
:10263000807C12E0CC790CB1022CE4D100EB431485
:10264000D4F80C5525F07005C4F80C55DBE7497833
:10265000FFF7BCFF6FE04FF0010CCD78002D51D09B
:102660000C8904FB0CF40C610C69C4F31204394DA1
:1026700005EACC4C44EA0C0491F80AC04FEA4C7CC1
:102680000CF0C04C00EB431344EA0C04C3F81045B3
:1026900012B1CC68C3F8144500F58065AC6814F03D
:1026A000010F0CBF4FF0010C4FF0000CD3F80045A8
:1026B00024F00054C3F80045D3F8004544EA4C74B4
:1026C000C3F80045D3F800450394039C24F08044EC
:1026D0000394CC78C4B1039C44F400440394039C59
:1026E00044F000440394039CC3F800451ABBCB7824
:1026F0000BBB4B69FBB1CA79032A15D8DFE802F09E
:10270000091E091E0C61AFE7039C24F400440394E6
:10271000E5E70333C26A92B2C3F38F039A4203D24E
:10272000836943F020038361002300938B8A4A78F6
:10273000C968FFF7EBFC002005B030BD03332A6900
:1027400092B2C3F38F039A42EED2836943F080635F
:102750008361E9E70000F81F10B50446FFF7A1FC0C
:1027600010212046FFF7A4FC2046FFF7B9FC002209
:102770000AE004EB4211D1F8003523F0802343F046
:102780008043C1F8003501320F2AF2D900200346F8
:1027900000E001300F2813D804EB401C0CF5A061B9
:1027A000DCF8002522F4004242F04042CCF800253B
:1027B0000133B3F57A7FECD80A68002AF8DBE8E742
:1027C0004FF0FF33C4F8143463612046FFF763FC15
:1027D000002010BD002800F0E08170B582B00446F2
:1027E000036813F0010F3BD09F4B9B6803F00C0371
:1027F000042B2CD09C4B9B6803F00C03082B21D09E
:102800006368B3F5803F4FD0B3F5A02F52D0964BFD
:102810001A6822F480321A601A6822F480221A6040
:102820006368002B50D000F0FDFD05468E4B1B6801
:1028300013F4003F14D100F0F5FD401B6428F5D9D6
:102840000320B1E1884B5B6813F4800FD8D0864B2E
:102850001B6813F4003F03D06368002B00F09F81D6
:10286000236813F0020F54D07F4B9B6813F00C0FBA
:102870003ED07D4B9B6803F00C03082B33D0E368FC
:10288000002B68D0794B01221A6000F0CBFD054681
:10289000754B1B6813F0020F54D100F0C3FD401BB1
:1028A0000228F5D903207FE16F4A136843F480338F
:1028B0001360B5E76C4B1A6842F480221A601A68FC
:1028C00042F480321A60ABE700F0ACFD0546664B7F
:1028D0001B6813F4003FC3D000F0A4FD401B642824
:1028E000F5D9032060E1604B5B6813F4800FC6D11B
:1028F0005D4B1B6813F0020F03D0E368012B40F01F
:102900005081594A136823F0F803216943EAC1034F
:102910001360236813F0080F42D063696BB3534B05
:102920000122C3F8802E00F07DFD05464E4B5B6F03
:1029300013F0020F34D100F075FD401B0228F5D9C9
:10294000032031E1484A136823F0F803216943EA80
:10295000C1031360DDE7454B00221A6000F062FD01
:102960000546414B1B6813F0020FD2D000F05AFD10
:10297000401B0228F5D9032016E13C4B0022C3F886
:10298000802E00F04FFD0546374B5B6F13F0020FB2
:1029900006D000F047FD401B0228F5D9032003E1D3
:1029A000236813F0040F77D02F4B1B6C13F0805F5C
:1029B00033D1002301932C4B1A6C42F080521A64DD
:1029C0001B6C03F080530193019B0125284B1B686E
:1029D00013F4807F23D0A368012B34D0052B38D08B
:1029E000214B1A6F22F001021A671A6F22F00402BB
:1029F0001A67A368002B3DD000F014FD06461A4B61
:102A00001B6F13F0020F46D100F00CFD801B41F24A
:102A100088339842F3D90320C6E00025D6E7144A4C
:102A2000136843F48073136000F0FCFC0646104BFF
:102A30001B6813F4807FCED100F0F4FC801B0228C9
:102A4000F5D90320B0E0084A136F43F00103136780
:102A5000CFE7054B1A6F42F004021A671A6F42F073
:102A600001021A67C5E700BF003802400000474274
:102A70000070004000F0D6FC0646524B1B6F13F06E
:102A8000020F08D000F0CEFC801B41F28833984240
:102A9000F3D9032088E0EDB9A369002B00F083800F
:102AA000484A926802F00C02082A51D0022B17D033
:102AB000454B00221A6600F0B5FC0446414B1B68EA
:102AC00013F0007F42D000F0ADFC001B0228F5D9C6
:102AD000032069E03B4A136C23F080531364DBE767
:102AE000394B00221A6600F09DFC0546354B1B68E9
:102AF00013F0007F06D000F095FC401B0228F5D9AA
:102B0000032051E0E369226A1343626A43EA8213B5
:102B1000A26A5208013A43EA0243E26A43EA0263C4
:102B2000284A5360284B01221A6600F07BFC0446B9
:102B3000244B1B6813F0007F06D100F073FC001BD0
:102B40000228F5D903202FE000202DE000202BE003
:102B5000012B2BD01B4B5B6803F48001E26991428F
:102B600026D103F03F02216A8A4223D1616A47F6E7
:102B7000C0721A40B2EB811F1ED103F44031A26A29
:102B80005208013AB1EB024F18D103F07063E26AC8
:102B9000B3EB026F14D1002006E001207047012042
:102BA00002E0012000E0002002B070BD0120FBE740
:102BB0000120F9E70120F7E70120F5E70120F3E71D
:102BC0000120F1E7003802400000474208B5334BCE
:102BD0009B6803F00C03042B5BD0082B5BD12F4BBD
:102BE0005A6802F03F025B6813F4800F2CD02B4B25
:102BF0005868C0F388104FEA401CBCEB000C6EEB29
:102C00000E0E4FEA8E1343EA9C634FEA8C11B1EB30
:102C10000C0163EB0E03DB0043EA5173C90011EBB7
:102C2000000C43F10003590200234FEA4C2041EA13
:102C3000DC51FDF701FB194B5B68C3F30143013322
:102C40005B00B0FBF3F027E0144B5868C0F388102A
:102C50004FEA401CBCEB000C6EEB0E0E4FEA8E13DD
:102C600043EA9C634FEA8C11B1EB0C0163EB0E035A
:102C7000DB0043EA5173C90011EB000C43F1000380
:102C8000990200234FEA8C2041EA9C51FDF7D4FAC7
:102C9000D1E7034800E0034808BD00BF0038024008
:102CA00000127A000024F400002800F09B8070B528
:102CB0000D4604464F4B1B6803F00F038B4208D2AE
:102CC000CBB24C4A1370136803F00F038B4240F0F1
:102CD0008B80236813F0020F17D013F0040F04D079
:102CE000454A936843F4E0539360236813F0080F58
:102CF00004D0414A936843F4604393603E4A93682A
:102D000023F0F003A1680B439360236813F0010FD5
:102D100032D06368012B21D09A1E012A25D9364A68
:102D2000126812F0020F61D033498A6822F0030260
:102D300013438B6000F076FB06462F4B9B6803F035
:102D40000C036268B3EB820F16D000F06BFB801BA4
:102D500041F288339842F0D9032042E0264A1268B3
:102D600012F4003FE0D101203BE0234A126812F048
:102D7000007FD9D1012034E01E4B1B6803F00F0304
:102D8000AB4207D9EAB21B4B1A701B6803F00F0362
:102D9000AB422DD1236813F0040F06D0164A936876
:102DA00023F4E053E1680B439360236813F0080FAA
:102DB00007D0114A936823F46043216943EAC103B1
:102DC0009360FFF703FF0C4B9B68C3F303130B4A9D
:102DD000D35CD8400A4B18600A4B1868FEF73AF9E2
:102DE000002070BD012070470120FAE70120F8E7BC
:102DF0000120F6E7003C024000380240B0750008B0
:102E00000800002004000020014B1868704700BF34
:102E10000800002008B5FFF7F7FF044B9B68C3F3D9
:102E20008223034AD35CD84008BD00BF003802406B
:102E3000C075000808B5FFF7E7FF044B9B68C3F3B4
:102E40004233034AD35CD84008BD00BF003802407B
:102E5000C07500080F2303600B4B9A6802F0030251
:102E600042609A6802F0F00282609A6802F4E052CE
:102E7000C2609B68DB0803F4E0530361034B1B68EB
:102E800003F00F030B60704700380240003C024023
:102E900030B583B00446036813F0430F15D123689F
:102EA00013F00C0F6AD1236813F0200F40F0BF809D
:102EB000236813F0100F00F0238194F82C20914B1D
:102EC000C3F8E021002003B030BD8F4B00229A668A
:102ED00000F0A8FA05468D4B1B6813F0006F06D072
:102EE00000F0A0FA431B022BF5D90320EBE723687F
:102EF00013F0010F07D06268A3681B0743EA82132F
:102F0000824AC2F88430236813F0020F15D07F4A3A
:102F1000D2F884106068E3681B0643EA801301F06E
:102F2000E0410B43C2F88430D2F88C3023F01F0309
:102F3000E16901390B43C2F88C30236813F0400F6C
:102F40000AD06268E3681B0643EA8213A26843EA78
:102F500002736E4AC2F884306B4B01229A6600F00D
:102F600061FA0546694B1B6813F0006F97D100F0BA
:102F700059FA401B0228F5D90320A4E7624B00222E
:102F80001A6700F04FFA0546604B1B6813F0005FAC
:102F900006D000F047FA431B022BF5D9032092E735
:102FA000236813F0040F16D0584AD2F8881020690D
:102FB00063691B0643EA801301F0E0410B43C2F84A
:102FC0008830D2F88C3023F4F853216A013943EA6F
:102FD0000123C2F88C30236813F0080F14D04B4A39
:102FE000D2F88830216903F0706343EA8113A16944
:102FF00043EA0173C2F88830D2F88C3023F44033AE
:10300000616A0B43C2F88C303F4B01221A6700F013
:1030100009FA05463D4B1B6813F0005F7FF443AF90
:1030200000F000FA401B0228F4D903204BE70023EC
:103030000193364B1A6C42F080521A641B6C03F0F9
:1030400080530193019B324A136843F480731360E9
:1030500000F0E8F905462E4B1B6813F4807F06D17B
:1030600000F0E0F9401B0228F5D903202BE7274B9D
:103070001B6F13F4407314D0A26A02F440729A4298
:103080000FD0224B1A6F22F440721F490120C1F861
:10309000400E0020C1F8400E1A671B6F13F0010F9D
:1030A00012D1A36A03F44072B2F5407F1DD0174AD3
:1030B000936823F4F813936014490B6FA26AC2F368
:1030C0000B0213430B67F3E600F0ACF905460F4B18
:1030D0001B6F13F0020FE4D100F0A4F9401B41F282
:1030E00088339842F3D90320EDE608498A6822F430
:1030F000F81223F0704323F4407313438B60DBE733
:103100000020E0E60010474200004742003802403D
:103110000070004000230F2B00F2F68070B582B0E3
:1031200066E085684FEA430E032404FA0EF425EAAC
:103130000405CC6804FA0EF42C438460446824EA45
:1031400002044A68C2F300129A40224342605DE0E2
:10315000DC08083450F8242003F00705AD004FF0D8
:103160000F0E0EFA05FE22EA0E0E0A69AA4042EA86
:103170000E0240F824205DE0092200E0002202FA5D
:103180000EF22A430234614D45F82420604A146847
:103190006FEA0C0224EA0C054E6816F4803F01D059
:1031A0004CEA04055A4C2560646802EA04054E683E
:1031B00016F4003F01D04CEA0405554C6560A46844
:1031C00002EA04054E6816F4801F01D04CEA04059B
:1031D0004F4CA560E46822404D6815F4001F01D0F3
:1031E0004CEA04024A4CE26001330F2B00F28A8061
:1031F00001229A400C6804EA020C32EA0404F3D17A
:103200004C6804F00304013C012C8AD94A6802F09E
:103210000302032A09D0C4685D000322AA4024EAFD
:1032200002048A68AA402243C2604A6802F003028C
:10323000022A8DD004684FEA430E032202FA0EF2EE
:1032400024EA02044A6802F0030202FA0EF2224360
:1032500002604A6812F4403FC6D0002201922D4A13
:10326000546C44F480445464526C02F480420192E1
:10327000019A9C08A51C254A52F8255003F0030E1C
:103280004FEA8E0E0F2202FA0EF225EA0205224ABA
:1032900090423FF473AF02F58062904222D002F573
:1032A0008062904220D002F5806290421ED002F5EA
:1032B000806290421CD002F5806290421AD002F5E2
:1032C0008062904218D002F58062904216D002F5DA
:1032D0008062904214D002F5806290423FF44CAF7D
:1032E0000A224CE701224AE7022248E7032246E786
:1032F000042244E7052242E7062240E707223EE790
:1033000008223CE702B070BD704700BF00380140A2
:10331000003C014000380240000002400AB18161D7
:103320007047090481617047074AD36823F4E0635A
:103330001B041B0C000200F4E060034343F0BF6376
:1033400043F40033D360704700ED00E000B5194B43
:10335000DB68C3F30223C3F1070CBCF1040F28BFE1
:103360004FF0040C03F1040EBEF1060F18D9033B15
:103370004FF0FF3E0EFA0CFC21EA0C0199400EFAC8
:1033800003FE22EA0E020A4300280BDB1201D2B22E
:1033900000F1604000F5614080F800235DF804FB17
:1033A0000023E5E700F00F001201D2B2024B1A54DD
:1033B000F4E700BF00ED00E014ED00E0002807DBBB
:1033C00000F01F02400901239340024A42F82030D6
:1033D000704700BF00E100E008B50B4B1A6842F4EB
:1033E00000721A601A6842F480621A601A6842F425
:1033F00080721A600320FFF797FF0020FDF72AFE76
:10340000FDF70CFC002008BD003C0240034A116897
:10341000034B1B780B441360704700BFA00C0020C7
:1034200000000020014B1868704700BFA00C00206E
:1034300038B50446FFF7F6FF0546B4F1FF3F02D06A
:10344000044B1B781C44FFF7EDFF401BA042FAD34E
:1034500038BD00BF0000002058B110B504464379C4
:103460001BB101236371002010BD0371FDF7F8FB50
:10347000F7E70120704748B310B5044690F839309B
:10348000FBB1022384F839302268136823F44033F7
:1034900061680B4313602268536B23F00703A16834
:1034A0000B4353632268136C23F47F5323F03F03D1
:1034B000E1680B4313640020E063012384F8393092
:1034C00010BD80F83830FDF7E3FBDAE701207047E4
:1034D0007047704770B5044603685D681E6815F054
:1034E000010F16D016F4807F13D01A6822F4807270
:1034F0001A60C36B43F00103C363036801229A603F
:10350000042380F83930002380F83830436903B150
:10351000984715F0200F18D016F4005F15D02268D8
:10352000136823F400531360236820229A60E36B2E
:1035300043F00203E363042384F83930002384F862
:10354000383063690BB12046984715F0080F18D042
:1035500016F4006F15D02268136823F4006313601B
:10356000236808229A60E36B43F00403E3630423B7
:1035700084F83930002384F8383063690BB1204671
:10358000984715F0040F02D016F4806F20D115F083
:10359000020F16D016F4007F13D02268136823F4AC
:1035A00000731360236802229A60E36BE3630123D4
:1035B00084F83930002384F8383023690BB1204671
:1035C000984715F0100F02D016F4805F0CD170BD33
:1035D0002268136823F480631360236804229A60CE
:1035E0002046FFF775FFD2E72268136823F4805363
:1035F0001360236810229A60E36BE363012384F86D
:103600003930002384F838302046FFF762FFDEE7C8
:1036100090F83820012A59D030B40346012280F8AE
:103620003820022280F8392000EB0112D0698A1C70
:1036300012019A5840EA0242093801281DD9881C13
:1036400003EB0010406842EA006239BB1C68656AFF
:103650001F48284010436062186803EB0112946908
:103660008461D269093A012A0FD9012283F83920ED
:10367000002083F8380030BC7047881C03EB001032
:10368000406800F07F400243DFE7023103EB0111A5
:103690004A68196822F07F428A62E6E71C68E56999
:1036A0000B4828401043E061186803EB011294694D
:1036B0000461D269093A012AD7D8023103EB01111A
:1036C0004A68196822F07F420A62CEE702207047FA
:1036D000F0FFFC0030B40B68012B1AD0026822F412
:1036E000FF4222F07F024B688C682343CC6823435F
:1036F0000C6923434C6923438C692343CC692343DE
:103700000C6A2343496A0B4313430360002030BC17
:103710007047026822F4F842CB690C6A1C434B6A7A
:103720001C431443426822F4FF4222F07F024B689C
:103730008D682B43CD682B430D692B434D692B437B
:1037400089690B43134304604360DFE710B5012A26
:1037500025D0826802F070420B68013B4C6804F18E
:10376000FF3C43EA0C138C6804F1FF3C43EA0C2352
:10377000CC6804F1FF3C43EA0C330C6904F1FF3CD4
:1037800043EA0C434C6904F1FF3C43EA0C5389695A
:10379000013943EA016313438360002010BD83684D
:1037A00023F4700C2CF4704CCB6803F1FF3E4B6992
:1037B0005A1E120542EA0E3242EA0C02C36803F0B6
:1037C000704C0B68013B4C6804F1FF3E43EA0E135A
:1037D0008C6804F1FF3E43EA0E230C6904F1FF3EBE
:1037E00043EA0E438969013943EA016343EA0C0362
:1037F0008260C360D1E7E0B138B50D46044690F869
:103800002C308BB1022384F82C30214651F8040B64
:10381000FFF760FF626829462068FFF797FF0123E2
:1038200084F82C30002038BD80F82D30FDF70EFCD8
:10383000E8E7012070470000002800F0CC8070B558
:10384000044690F83D30002B77D0242384F83D3097
:103850002268136823F0010313602268136843F49D
:10386000004313602268136823F400431360FFF7DA
:10387000D1FA62685A4B9A4264D85A4B98428CBF2C
:1038800000230123002B40F0A8805749A1FB003101
:103890008B0C25686A6822F03F0242EA91426A6016
:1038A00021680A6A22F03F0266684D4DAE424FD849
:1038B000013313430B622168CA6922F44F4222F09C
:1038C000FF026568464B9D424CD8431E6D00B3FB1A
:1038D000F5F3013340F6FC70034278D0C3F30B03D9
:1038E0001A43CA6121680B6823F0C003E269206AA9
:1038F000024313430B6021688B6823F4034323F0D6
:10390000FF032269E068024313438B602168CB68A0
:1039100023F0FF036269A06902431343CB6022686E
:10392000136843F00103136000202064202384F80F
:103930003D30206384F83E0070BD80F83C30FDF7D8
:10394000C7F982E7294B98428CBF0023012399E7EE
:103950004FF4967505FB03F3254DA5FB03539B0917
:103960000133A6E7A668BEB9431E05EB450CB3FBC1
:10397000FCF30133C3F30B03B3FA83F35B0943BBDB
:10398000C6B9431E05EB4505B3FBF5F30133C3F39D
:103990000B0343F40043A3E7431E05EB850C0CEB3C
:1039A0008C0CB3FBFCF30133C3F30B03B3FA83F3C7
:1039B0005B09E4E7431E05EB850505EB8505B3FBD5
:1039C000F5F30133C3F30B0343F4404388E70423C7
:1039D00086E7012384E7012070470120ACE700BFA0
:1039E000A08601007F841E0083DE1B43FF083D008C
:1039F000D34D621090F83D30DBB2202B01D0022075
:103A00007047242380F83D300268136823F00103D7
:103A100013600268536A23F0100353620268536A0A
:103A20000B4353620268136843F0010313602023C1
:103A300080F83D300020704790F83D30DBB2202BFD
:103A400001D002207047242380F83D3002681368BB
:103A500023F0010313600268536A9BB223F00F0343
:103A6000194389B251620268136843F0010313607D
:103A7000202380F83D300020704770B54D68036802
:103A8000DC68C4F30B4425444FEAC21C03EBC213A9
:103A9000D3F8884004F47044C3F888400B68046885
:103AA000E668C6F30B463344013304EBC21443EA21
:103AB0000543C4F88830CD680368DC68C4F30A04A1
:103AC000254403EBC213D3F88C4004F47044C3F8CC
:103AD0008C408B680468E668C6F30A0633440133F9
:103AE00004EBC21443EA0543C4F88C30036803EBCB
:103AF000C213D3F8944024F00704C3F89440036839
:103B000003EBC2130C69C3F8944091F831E091F8CB
:103B100032508E69036803EBC213D3F89C40002433
:103B2000C3F89C4091F8303043EA0E2343EA054342
:103B3000056805EBC21543EA0663C5F89C300368C7
:103B400003EBC213D3F8985025F0FF05C3F8985043
:103B5000036803EBC2134D69C3F89850036803EB85
:103B6000C213D3F8A05025F4E06525F00705C3F88B
:103B7000A0500D6A036803EBC213CE693543C3F846
:103B8000A050036803EBC213D3F8AC50C3F8AC40A9
:103B9000036803EBC2134A6AC3F8AC200A6982B116
:103BA000531E062B05D8DFE803F03C0D080604047D
:103BB0000A00012206E0022204E0022202E00222C0
:103BC00000E0042203686344D3F8B04004F0E0242A
:103BD000C3F8B0408B6A02FB03F44B680D685B1BB3
:103BE00002FB03F303330268624443EA0443C2F86E
:103BF000B03003686344D3F8B42022F4FF6222F0AB
:103C00000702C3F8B42003686344CA6AC3F8B42047
:103C100003686344D3F8842042F00102C3F884208F
:103C200070BD0322CEE70000002872D038B50446EC
:103C300090F8A130002B67D0022384F8A1302268CD
:103C4000936923F07043936121688A696368A0686F
:103C50000343E06803432069034313438B612168F6
:103C60008A682D4B1A408A6020688268A16965695C
:103C700041EA05410A4382602168CA681A40CA6065
:103C80002068C268216AE56941EA05410A43C260C9
:103C900021680A691A400A6120680269A16A656A96
:103CA00041EA05410A43026121684A6913404B61B8
:103CB000E06A21684B69226B42EA004213434B6180
:103CC00094F8350094F836301B042168CA6A02F073
:103CD0007F42CA622168CA6A43EA002394F834002A
:103CE00003431343CB622268536B43F006035363D1
:103CF0002268936943F0010393610020C4F8A40093
:103D0000012384F8A13038BD80F8A030FDF734F8E5
:103D100092E70120704700BF00F800F0704770473D
:103D2000704770B5044603689D6B5E6B15F0040F19
:103D300002D016F0040F12D115F0020F02D016F0C7
:103D4000020F21D115F0010F02D016F0010F32D170
:103D500015F0080F02D016F0080F3DD170BD5A6B58
:103D600022F004025A6303680422DA63D0F8A43014
:103D700043F00103C0F8A43080F8A120002380F8AC
:103D8000A030FFF7CBFFD7E72268536B23F0020385
:103D9000536323680222DA63D4F8A4301343C4F8CF
:103DA000A430042384F8A130002384F8A0302046F6
:103DB000FFF7B4FFC6E72268536B23F00103536398
:103DC00022680123D36384F8A130002384F8A03053
:103DD0002046FFF7A4FFBBE72268536B23F00803DC
:103DE000536323680822DA63012384F8A130002397
:103DF00084F8A0302046FFF793FFAFE7F8B590F8BE
:103E0000A030012B2CD004460D461646012780F821
:103E1000A070022380F8A1304FF0340C0CFB020C90
:103E20000CF1380C8E46BEE80F00ACE80F00BEE87F
:103E30000F00ACE80F00BEE80F00ACE80F00DEF8A2
:103E40000030CCF80030324629462046FFF715FEF8
:103E500023685F6284F8A170002084F8A000F8BD98
:103E60000220FCE700285AD010B50446436A33B953
:103E70004368B3F5827F05D00023C36102E00023CD
:103E8000036143610023A36294F85130002B40D0BA
:103E9000022384F851302268136823F04003136032
:103EA000636803F48273A26802F404421343E26875
:103EB00002F400621343226902F0020213436269B2
:103EC00002F001021343A26902F400721343E26993
:103ED00002F038021343226A02F080021343A26AFE
:103EE00002F40052216813430B60638B03F0040358
:103EF000626A02F01002216813434B602268D369A2
:103F000023F40063D36100206065012384F85130FD
:103F100010BD84F850302046FDF710F8B8E70120B6
:103F2000704710B4036A046A24F0010404628469CF
:103F300024F0F00C4CEA021223F00A030B438261D6
:103F400003625DF8044B704710B4036A23F010035A
:103F500003628469036A24F4704C4CEA023223F051
:103F6000A00343EA0113826103625DF8044B7047CA
:103F7000836823F070030B4343F0070383607047AB
:103F800090F83D30DBB2012B37D1022380F83D3071
:103F90000268D36843F00103D3600368194A93426F
:103FA00020D0B3F1804F1DD0A2F57C42934219D0AE
:103FB00002F58062934215D002F58062934211D0DF
:103FC00002F5784293420DD002F57052934209D027
:103FD000A2F59432934205D01A6842F001021A60A9
:103FE000002070479A6802F00702062A07D01A6874
:103FF00042F001021A600020704701207047002043
:10400000704700BF0000014070477047704770471D
:1040100010B5044603681A6912F0020F11D0DA686D
:1040200012F0020F0DD06FF002021A610123037724
:1040300003689B6913F0030F70D0FFF7E6FF0023BE
:10404000237723681A6912F0040F12D0DA6812F08D
:10405000040F0ED06FF004021A6102232377236845
:104060009B6913F4407F5FD02046FFF7CEFF00230B
:10407000237723681A6912F0080F12D0DA6812F059
:10408000080F0ED06FF008021A610423237723680B
:10409000DB6913F0030F4ED02046FFF7B6FF002375
:1040A000237723681A6912F0100F12D0DA6812F021
:1040B000100F0ED06FF010021A61082323772368C7
:1040C000DB6913F4407F3DD02046FFF79EFF0023BD
:1040D000237723681A6912F0010F03D0DA6812F00F
:1040E000010F36D123681A6912F0800F03D0DA6805
:1040F00012F0800F34D123681A6912F0400F03D0F8
:10410000DA6812F0400F32D123681A6912F0200FDA
:1041100003D0DA6812F0200F30D110BDFFF774FF22
:104120002046FFF773FF8AE72046FFF76DFF204622
:10413000FFF76CFF9BE72046FFF766FF2046FFF77F
:1041400065FFACE72046FFF75FFF2046FFF75EFF05
:10415000BDE76FF001021A612046FCF7CDFAC1E716
:104160006FF080021A61204600F073F9C3E76FF028
:1041700040021A612046FFF74AFFC5E76FF02002B0
:104180001A61204600F064F9C7E700000368304A6E
:10419000904212D0B0F1804F0FD0A2F57C429042F5
:1041A0000BD002F58062904207D002F58062904207
:1041B00003D002F57842904203D123F070034A689D
:1041C0001343234A90422AD0B0F1804F27D0A2F562
:1041D0007C42904223D002F5806290421FD002F5CB
:1041E000806290421BD002F57842904217D002F5CF
:1041F0007052904213D002F5806290420FD002F5C7
:10420000806290420BD0A2F59832904207D002F51E
:104210008062904203D002F58062904203D123F481
:104220004073CA68134323F080034A691343036051
:104230008B68C3620B688362054B984203D003F519
:104240008063984201D10B69036301234361704786
:104250000000014040B310B5044690F83D30F3B182
:10426000022384F83D30214651F8040BFFF78EFFFE
:10427000012384F8463084F83E3084F83F3084F8D7
:10428000403084F8413084F8423084F8433084F878
:10429000443084F8453084F83D30002010BD80F86B
:1042A0003C30FCF781FEDBE70120704710B48468E6
:1042B00024F47F4C42EA03220A4342EA0C02826061
:1042C0005DF8044B704790F83C30012B78D010B566
:1042D0000446012380F83C30022380F83D30026818
:1042E000936823F47F4323F0770393600B68602B7C
:1042F0004CD029D8402B54D00CD9502B22D1CA688D
:1043000049680068FFF70DFE50212068FFF730FE76
:10431000002005E0202B0DD009D9302B0AD0012038
:10432000012384F83D30002384F83C3010BD0BB1EC
:10433000102B05D119462068FFF71AFE0020EFE781
:104340000120EDE70120EBE7B3F5805F34D0B3F552
:10435000005F0CD1CB684A6889680068FFF7A6FF48
:104360002268936843F4804393600020D8E7702B61
:1043700024D1CB684A6889680068FFF797FF2268F4
:10438000936843F0770393600020C9E7CA684968DF
:104390000068FFF7D9FD60212068FFF7E9FD0020E4
:1043A000BEE7CA6849680068FFF7BBFD4021206886
:1043B000FFF7DEFD0020B3E70020B1E70120AFE703
:1043C0000220704790F83C20012A3DD010B40346EB
:1043D000012280F83C20022280F83D2002685068CB
:1043E000946820F0700C086840EA0C0050601A686D
:1043F000164882421AD0B2F1804F17D0A0F57C4007
:10440000824213D000F5806082420FD000F58060B8
:1044100082420BD000F57840824207D000F5705000
:10442000824203D0A0F59430824204D124F080046B
:10443000496821439160012283F83D20002083F8E0
:104440003C005DF8044B70470220704700000140BB
:104450007047704710B504460268136923F440534F
:10446000C1680B431361836802691A4343691A43A5
:10447000C3691A430168CB6823F4164323F00C0385
:104480001343CB600268536923F4407381690B4383
:1044900053610368314A934206D002F58062934229
:1044A00002D0FEF7B7FC01E0FEF7C4FCE369B3F508
:1044B000004F29D00021031849411B1841F1000188
:1044C000C90041EA5371DB00181863684FEA8302A0
:1044D0004FEA937341F10001FBF7AEFE204AA2FBC5
:1044E00000314909642303FB11031B013233A2FB92
:1044F00003235B0903F0F00202EB011203F00F0348
:10450000216813448B6010BD0023021843EB0301A4
:10451000121841F10001C90041EA5271D20010188D
:1045200041F10001626892185B41FBF785FE0C4A7D
:10453000A2FB00314909642303FB1103DB00323382
:10454000A2FB03235B095A0002F4F87202EB01128A
:1045500003F00703216813448B60D4E70010014087
:104560001F85EB5158B310B5044690F83D300BB39E
:10457000242384F83D302268D36823F40053D360A9
:104580002046FFF767FF2268136923F49043136105
:104590002268536923F02A0353612268D36843F4E5
:1045A0000053D36000202064202384F83D3084F839
:1045B0003E3010BD80F83C30FCF70EFDD8E70120FE
:1045C00070470000034AD2F8883043F47003C2F801
:1045D0008830704700ED00E000F1080343604FF0C1
:1045E000FF328260C36003610023036070470023D1
:1045F0000361704743684B609A688A6051609960B4
:104600000861036801330360704730B40D68B5F189
:10461000FF3F11D000F108031C465B681A68AA42EC
:10462000FAD963684B6099608C60616008610368C7
:104630000133036030BC70470469F2E703694168E5
:1046400082688A60416851605A68824206D00022BE
:1046500002611A68013A1A601868704782685A60E5
:10466000F5E710B5044601F0EDFAA26BE36B9A4250
:1046700004D0002401F008FB204610BD0124F9E716
:1046800010B5044601F0DEFAA36B23B9012401F052
:10469000FBFA204610BD0024F9E770B50446154624
:1046A000866B026C5AB903681BB100200136A66301
:1046B00070BD806801F002F80023A360F6E76DB9D1
:1046C000406802F063FE226C636813446360A26872
:1046D000934219D3236863602846E7E7C06802F075
:1046E00055FE226C5142E3689B1AE36022689342B4
:1046F00002D2A3680B44E360022D01D00020D5E76D
:1047000026B1013E0020D1E72846CFE70020CDE7C3
:104710000346026C6AB110B50846D9681144D960E5
:104720009C68A14201D31968D960D96802F02EFEB5
:1047300010BD704738B5054601F084FA95F845403C
:1047400064B201E0013C64B2002C0ADD6B6A43B143
:1047500005F1240000F008FF0028F3D000F098FFD6
:10476000F0E7FF2385F8453001F08EFA01F06AFA90
:1047700095F8444064B201E0013C64B2002C0ADDCB
:104780002B6943B105F1100000F0EEFE0028F3D0D4
:1047900000F07EFFF0E7FF2385F8443001F074FA63
:1047A00038BD38B5E0B10D46044601F04BFA236838
:1047B000E26B216C01FB0230A0600020A06363600B
:1047C000013A02FB0133E360FF2384F8443084F8AC
:1047D0004530FDB9236963B901F056FA012038BDAF
:1047E0004FF0500383F31188BFF36F8FBFF34F8FE8
:1047F000FEE704F1100000F0B7FE0028ECD04FF007
:10480000E0234FF08052C3F8042DBFF34F8FBFF366
:104810006F8FE1E704F11000FFF7DEFE04F12400E2
:10482000FFF7DAFED8E710B5034602980C4631B917
:104830000060C36304640121FFF7B3FF10BD026091
:10484000F7E740B94FF0500383F31188BFF36F8F40
:10485000BFF34F8FFEE710B584B01C46844653B1BA
:1048600092B189B94FF0500383F31188BFF36F8F72
:10487000BFF34F8FFEE74FF0500383F31188BFF370
:104880006F8FBFF34F8FFEE76AB148230393039BFB
:10489000482B13D04FF0500383F31188BFF36F8F71
:1048A000BFF34F8FFEE70029EFD04FF0500383F3A3
:1048B0001188BFF36F8FBFF34F8FFEE7039B012378
:1048C00084F8463000949DF818306046FFF7ABFF3F
:1048D000204604B010BD40B94FF0500383F3118857
:1048E000BFF36F8FBFF34F8FFEE7F0B583B00D4678
:1048F0001446064601FB00F0483001F073F8074605
:1049000050B1002380F846300090234600F1480261
:1049100029463046FFF787FF384603B0F0BDF0B5B3
:1049200085B0019288B10F461D460446B1B1022DF3
:1049300020D1E36B012B1DD04FF0500383F311887E
:10494000BFF36F8FBFF34F8FFEE74FF0500383F33A
:104950001188BFF36F8FBFF34F8FFEE7036C002BFF
:10496000E5D04FF0500383F31188BFF36F8FBFF38F
:104970004F8FFEE700F092FE064658B9019B002BD0
:1049800048D04FF0500383F31188BFF36F8FBFF30C
:104990004F8FFEE700263DE02A4639462046FFF7C6
:1049A0007CFE636A7BB948B14FF0E0234FF0805240
:1049B000C3F8042DBFF34F8FBFF36F8F01F064F97D
:1049C000012005B0F0BD04F1240000F0CDFD002869
:1049D000F4D04FF0E0234FF08052C3F8042DBFF322
:1049E0004F8FBFF36F8FE9E701F04EF90020E8E742
:1049F00002A800F0FFFD012619E0002384F84430EE
:104A000021E0002384F8453023E02046FFF792FEA2
:104A100000F08AFC01F016F9A26BE36B9A42BBD35B
:104A2000022DB9D0019B002BDED0002EE0D001F08A
:104A30002BF900F0E5FB01F005F994F8442052B29F
:104A4000B2F1FF3FD9D094F8452052B2B2F1FF3F06
:104A5000D7D001F019F901A902A800F0D7FDD8B903
:104A60002046FFF7FEFD0028CFD0019904F1100089
:104A700000F062FD2046FFF75DFE00F055FC0028C7
:104A8000C8D14FF0E0234FF08052C3F8042DBFF39C
:104A90004F8FBFF36F8FBDE72046FFF74BFE00F04F
:104AA00043FC00208DE72DE9F84390B10F461646F0
:104AB0001C460546B1B1022C20D1EB6B012B1DD059
:104AC0004FF0500383F31188BFF36F8FBFF34F8F05
:104AD000FEE74FF0500383F31188BFF36F8FBFF3EE
:104AE0004F8FFEE7036C002BE5D04FF0500383F3AC
:104AF0001188BFF36F8FBFF34F8FFEE701F0C8F946
:104B0000EFF311884FF0500383F31188BFF36F8FD9
:104B1000BFF34F8FAA6BEB6B9A4206D3022C04D0E3
:104B2000002088F31188BDE8F88395F845904FFA86
:104B300089F9AB6B224639462846FFF7AEFDB9F13D
:104B4000FF3F06D009F101035BB285F84530012033
:104B5000E7E76B6A0BB90120E3E705F1240000F0F9
:104B600003FD18B126B101203060DAE70120D8E753
:104B70000120D6E7F0B585B0019290B10F4604460A
:104B8000C1B100F08BFD064600BB019B002B5ED03F
:104B90004FF0500383F31188BFF36F8FBFF34F8F34
:104BA000FEE74FF0500383F31188BFF36F8FBFF31D
:104BB0004F8FFEE7036C002BE3D04FF0500383F3DD
:104BC0001188BFF36F8FBFF34F8FFEE700263EE0E3
:104BD00039462046FFF79CFD013DA563236923B9B3
:104BE00001F052F8012005B0F0BD04F1100000F012
:104BF000BBFC0028F4D04FF0E0234FF08052C3F804
:104C0000042DBFF34F8FBFF36F8FE9E701F03CF83E
:104C10000020E8E702A800F0EDFC012621E00023D7
:104C200084F8443029E0002384F845302BE0204606
:104C3000FFF780FD00F078FB09E02046FFF77AFDE2
:104C400000F072FB2046FFF71BFD00283FD100F06B
:104C5000F9FFA56B002DBBD1019B002BD6D0002EF8
:104C6000D8D001F011F800F0CBFA00F0EBFF94F887
:104C700044305BB2B3F1FF3FD1D094F845305BB222
:104C8000B3F1FF3FCFD000F0FFFF01A902A800F071
:104C9000BDFC0028D1D12046FFF7F2FC0028C6D089
:104CA000019904F1240000F047FC2046FFF742FD83
:104CB00000F03AFB0028CAD14FF0E0234FF08052B9
:104CC000C3F8042DBFF34F8FBFF36F8FBFE70020F2
:104CD00089E72DE9F843B0B10D4690460446D9B1B5
:104CE00001F0D6F8EFF311874FF0500383F31188EA
:104CF000BFF36F8FBFF34F8FA66BCEB9002087F342
:104D00001188BDE8F8834FF0500383F31188BFF397
:104D10006F8FBFF34F8FFEE7036C002BE0D04FF097
:104D2000500383F31188BFF36F8FBFF34F8FFEE7FC
:104D300094F844904FFA89F929462046FFF7E8FC99
:104D4000731EA363B9F1FF3F06D009F101035BB203
:104D500084F844300120D2E723690BB90120CEE763
:104D600004F1100000F000FC30B1B8F1000F05D0E4
:104D70000120C8F80000C2E70120C0E70120BEE71B
:104D8000084B1B681B6823B9074B4FF0FF321A60B2
:104D90007047044B1B68DB68DB685A68024B1A607B
:104DA000704700BFA80C00207C0D00202DE9F047C3
:104DB00080460D4617469946089EDDF824A00A9CB9
:104DC0009200A521206B02F0EFFA236B07F18042DD
:104DD000013A03EB820727F00707ADB34FF0000C51
:104DE000BCF10F0F09D815F80C3004EB0C0282F857
:104DF000343013B10CF1010CF2E7002384F8433096
:104E0000062E00D90626E66266640025A564201DEC
:104E1000FFF7EDFB04F11800FFF7E9FB2461C6F191
:104E20000706A6616462E564256584F854504A4625
:104E30004146384600F0DAFE2060BAF1000F01D09A
:104E4000CAF80040BDE8F087002384F83430D7E783
:104E500038B5002407E004EB840293000E481844A0
:104E6000FFF7BAFB0134062CF5D90C4D2846FFF7A5
:104E7000B3FB0B4C2046FFF7AFFB0A48FFF7ACFB38
:104E80000948FFF7A9FB0948FFF7A6FB084B1D607F
:104E9000084B1C6038BD00BFB00C0020500D002036
:104EA000640D0020880D0020B40D0020A00D00200E
:104EB000A80C0020AC0C002010B5044600F0C2FE87
:104EC000214A136801331360204B1B685BB1204BF0
:104ED0001B686BB91D4B1B68DA6AE36A9A4207D8F4
:104EE0001A4B1C6004E0194B1C601368012B28D07E
:104EF000184A136801331360E06A01238340164A9D
:104F000011680B43136000EB8000211D134B03EB72
:104F10008000FFF76FFB00F0B7FE0D4B1B687BB105
:104F20000A4B1B68DA6AE36A9A4209D24FF0E0231F
:104F30004FF08052C3F8042DBFF34F8FBFF36F8F34
:104F400010BDFFF785FFD3E73C0D0020A40C002027
:104F50009C0D0020480D00204C0D0020B00C0020BE
:104F600010B5044690F8553063B1012B11D0022BD7
:104F70000ED04FF0500383F31188BFF36F8FBFF350
:104F80004F8FFEE7006B00F0B5FD204600F0B2FD4C
:104F900010BD00F0AFFDFBE70F4B1B68D3B110B5A0
:104FA00000F050FE0D4BDB68DC68201DFFF746FB70
:104FB0000B4A1368013B1360074A1368013B1360F7
:104FC00000F062FE2046FFF7CBFF034B1B68002B6F
:104FD000E6D110BD704700BF400D0020B40D002089
:104FE0003C0D002070B504460D461D4B1E681D4B40
:104FF00018680430FFF722FB48B91A4B1B68DB6ABC
:1050000001229A4018490B6823EA02030B60B4F1AD
:10501000FF3F0DD03444134B1B685C60A64210D98F
:10502000124B18680F4B19680431FFF7EEFA70BD88
:10503000002DEFD00B4B196804310D48FFF7DAFA59
:10504000F5E70C4B1868074B19680431FFF7DDFAD8
:10505000094B1B68A342EAD9074B1C60E7E700BF76
:10506000C80D0020A40C00204C0D0020AC0C00202A
:10507000A00D0020A80C00207C0D002008B50BE03E
:105080004FF0E0234FF08052C3F8042DBFF34F8F51
:10509000BFF36F8FFBF718FDFFF77EFF024B1B6816
:1050A000012BEDD8F6E700BFB00C002030B587B07B
:1050B0000B9C7CB10C9DB5B158250495049D582DD1
:1050C0001AD04FF0500383F31188BFF36F8FBFF3F3
:1050D0004F8FFEE74FF0500383F31188BFF36F8FBC
:1050E000BFF34F8FFEE74FF0500383F31188BFF3F8
:1050F0006F8FBFF34F8FFEE7049D0C9D2C6302243E
:1051000085F8554000240394029505AC01940A9C4F
:105110000094FFF74BFE0C98FFF7CEFE059807B002
:1051200030BD2DE9F04385B00746884614461E463B
:10513000900000F057FC00B38146582000F052FC6C
:105140000546B0B1C0F83090E5B1002385F8553080
:10515000039302950D9B01930C9B009333462246CB
:1051600041463846FFF722FE2846FFF7A5FE0120FC
:1051700005E0484600F0BEFCE6E74FF0FF3005B022
:10518000BDE8F0834FF0FF30F9E7000010B588B0BC
:1051900000240594069407AA06A905A8FBF798FC25
:1051A000059B0293069B019300942346079A0E49A0
:1051B0000E48FFF77BFF0E4B186090B14FF0500385
:1051C00083F31188BFF36F8FBFF34F8F094B4FF0FD
:1051D000FF321A60084B01221A60084B1C6000F075
:1051E000CBFD08B010BD00BFC87500087D50000899
:1051F000780D00207C0D00209C0D0020C80D0020A3
:10520000024A136801331360704700BF440D002049
:10521000F8B53A4B1B68002B69D1394B1D68013535
:105220001D60C5B9374B1B681B6843B14FF0500375
:1052300083F31188BFF36F8FBFF34F8FFEE7314ABF
:105240001168314B186810601960304A13680133D7
:105250001360FFF795FD2E4B1B68AB423DD900272D
:105260002C4B1B68DB6A03EB83039A002A4B9B5889
:10527000012B00D90127294B1B68002B3CD00127AB
:105280003AE001271F4B1B681B6843B31D4B1B688B
:10529000DB68DC6863689D4226D3261D3046FFF735
:1052A000CDF9A36A1BB104F11800FFF7C7F9E36A4F
:1052B00001229A401A49086802430A6003EB8303FB
:1052C0009A00314614481044FFF794F9E26A114BF2
:1052D0001B68DB6A9A42D4D2D4E70027D2E70C4B92
:1052E0004FF0FF321A60BBE7094A1360B8E70D4A76
:1052F00013680133136000273846F8BD440D0020C1
:10530000C80D0020A80C0020AC0C0020800D00204F
:105310007C0D0020A40C0020B00C0020CC0D00203F
:105320004C0D0020840D002038B5354B1B6843B967
:105330004FF0500383F31188BFF36F8FBFF34F8F8C
:10534000FEE700F07FFC2E4B1A68013A1A601B68DA
:10535000002B4FD12B4B1B680BB900244BE00024D2
:10536000294B1B681BB3284BDB68DC6804F1180071
:10537000FFF764F9251D2846FFF760F9E06A01236D
:105380008340224A11680B43136000EB80002946DA
:105390001F4B03EB8000FFF72DF9E26A1D4B1B68E2
:1053A000DB6A9A42DCD31C4B01221A60D8E70CB1AD
:1053B000FFF7E6FC194B1C6884B9174B1C68D4B185
:1053C0004FF0E0234FF08052C3F8042DBFF34F8F0E
:1053D000BFF36F8F01240EE0013C07D0FFF718FFE9
:1053E0000028F9D00C4B01221A60F5E70B4B002284
:1053F0001A60E2E7002400F047FC204638BD00BFF9
:10540000440D00203C0D0020880D00204C0D002094
:10541000B00C0020A40C0020CC0D0020840D002036
:1054200010B5A8B10446104B1B6843B14FF05003B0
:1054300083F31188BFF36F8FBFF34F8FFEE7FFF742
:10544000DFFE00212046FFF7CDFDFFF76DFF48B9D5
:105450004FF0E0234FF08052C3F8042DBFF34F8F7D
:10546000BFF36F8F10BD00BF440D002008B52D4B5A
:105470001B681BB12C4B01221A6008BD2A4B00226D
:105480001A602A4B1B681B6B1A68B2F1A53F03D147
:105490005A68B2F1A53F1BD0244B18681968343103
:1054A000FBF713FB224B1B68B3FA83F3DBB2C3F1A8
:1054B0001F0303EB83018A001E498A588AB94FF003
:1054C000500383F31188BFF36F8FBFF34F8FFEE755
:1054D0009A68B2F1A53FDFD1DB68B3F1A53FDBD11C
:1054E000E0E7144903EB830082000A4450684068F7
:1054F000506003EB830C4FEA8C020832114488425F
:1055000009D003EB83039A000A4B13445B68DA6803
:10551000064B1A60B1E7406862469100054A0A44AA
:105520005060EEE7440D0020CC0D0020A40C0020BC
:105530004C0D0020B00C002058B110B50C46094AA3
:1055400011681831FFF761F801212046FFF74AFD85
:1055500010BD4FF0500383F31188BFF36F8FBFF37B
:105560004F8FFEE7A40C002038B5C368DC6824B375
:1055700004F118052846FFF761F8184B1B682BBB90
:10558000251D2846FFF75AF8E06A01238340144A94
:1055900011680B43136000EB80002946114B03EBAD
:1055A0008000FFF727F8E26A0F4B1B68DB6A9A421C
:1055B00011D901200D4B186038BD4FF0500383F313
:1055C0001188BFF36F8FBFF34F8FFEE7294608485E
:1055D000FFF710F8E7E70020EEE700BF440D0020DA
:1055E0004C0D0020B00C0020A40C0020CC0D00209D
:1055F000880D0020034B1B680360034B1B6843604E
:10560000704700BF800D0020C80D0020F8B5C8B15C
:105610000C460546F9B100F015FB1B4B19686B6889
:10562000C81A2268B2F1FF3F26D0184E36682F689C
:10563000B74201D08B4224D9824215D8002323607F
:1056400001241AE04FF0500383F31188BFF36F8FEA
:10565000BFF34F8FFEE74FF0500383F31188BFF382
:105660006F8FBFF34F8FFEE75B1A1344236028460A
:10567000FFF7C0FF002400E0002400F005FB2046F7
:10568000F8BD0124F9E700BFC80D0020800D0020FF
:10569000014B01221A607047CC0D0020054B1B689E
:1056A00033B1054B1B680BB10020704702207047D7
:1056B000012070479C0D0020440D002000284BD095
:1056C00038B50446264B1B68834208D04FF0500380
:1056D00083F31188BFF36F8FBFF34F8FFEE7836CA7
:1056E00043B94FF0500383F31188BFF36F8FBFF3BB
:1056F0004F8FFEE7013B8364C16A426C91422DD01B
:105700000BB1002038BD051D2846FEF797FF68B98C
:10571000E36A03EB8302920012498A5832B90122EC
:105720009A4011490B6823EA02030B60606CE06247
:10573000C0F10703A361012404FA00F30A4A1168C7
:105740000B43136000EB80002946064B03EB8000FF
:10575000FEF750FF2046D5E7002070470020D1E734
:10576000A40C0020B00C00204C0D0020842801D097
:105770000330704700207047EFF30580003818BFF2
:105780000120704708B5FFF701FD002008BD2DE995
:10579000F04387B00E464469C4B18569B5B1476826
:1057A000D0F80080D0F81090B0F90800FFF7DEFFC5
:1057B00002950194009033464A4641463846FFF729
:1057C00075FC0590059807B0BDE8F083446805684E
:1057D0000769B0F90800FFF7C9FF05AB0193009016
:1057E0003346BAB229462046FFF79BFC0128E9D090
:1057F0000020E8E708B500B90120FFF711FE0020FE
:1058000008BD00B583B0826842B1C36833B10021DE
:10581000009141680068FFF714F804E00022416835
:105820000068FFF758F803B05DF804FB30B585B0A9
:105830000446019100230393154602B90125FFF7A1
:105840009BFFA8B1002303AA01A92046FFF72BF96B
:10585000012818D1039BC3B14FF0E0234FF08052D1
:10586000C3F8042DBFF34F8FBFF36F8F002008E004
:1058700000232A4601A92046FFF751F8012806D146
:10588000002005B030BDFF20FBE70020F9E7FF2036
:10589000F7E770B584B00446029100230193E1B1AB
:1058A0000D46164600230393FFF766FF00B303AAD5
:1058B00001A92846FFF70DFA012816D0002300930E
:1058C000039BFBB14FF0E0234FF08052C3F8042D4F
:1058D000BFF34F8FBFF36F8F14E0802300936B46AD
:1058E00093E8070084E8070011E010230093E7E73E
:1058F000324601A92846FFF73DF901280AD006B132
:10590000402600966B4693E8070084E8070020468F
:1059100004B070BD10230093F4E70000124A12F0A7
:10592000070F1ED0D11D21F00701C1F5004313441C
:105930000A460E480260002141601344083B23F0F0
:1059400007030B48036059601960991A516013608E
:10595000084B1960084B1960084B4FF000421A6061
:1059600070474FF40043E4E7D40D0020E88D002099
:10597000D00D0020DC8D0020D88D0020D48D00209B
:10598000164B1A461B688342FBD3516802EB010C8D
:10599000844509D0416800EB010C634509D00360E0
:1059A000904219D010607047406801445160104621
:1059B000F0E710B40A4C2468A3420BD05B6819448A
:1059C000416013681B680360904200D010605DF86E
:1059D000044B70470460F7E7704700BFE88D002074
:1059E000D00D002070B50546FFF70AFC3B4B1B6845
:1059F0009BB13B4B1B681D4212D135B1083515F0E8
:105A0000070F02D025F007050835D5B1354B1B68C7
:105A1000AB421AD3344A14681DE0FFF77FFFE8E772
:105A2000FFF782FC0026FBF751F816F0070F53D062
:105A30004FF0500383F31188BFF36F8FBFF34F8F85
:105A4000FEE7FFF771FC0026EDE7FFF76DFC00268F
:105A5000E9E722461C466368AB4202D22368002B6A
:105A6000F7D11E4B1B68A34214D016680836236872
:105A7000136063685B1B102B14D9601910F0070FBB
:105A80000CD04FF0500383F31188BFF36F8FBFF337
:105A90004F8FFEE7FFF748FC0026C4E743606560D0
:105AA000FFF76EFF62680F490B689B1A0B600F4986
:105AB00009688B4201D20D490B60094B1B681343E7
:105AC0006360002323600A4A136801331360FFF701
:105AD0002BFC002EA9D1A6E7304670BDD00D0020CA
